{
  "contractName": "Community",
  "abi": [
    {
      "constant": true,
      "inputs": [
        {
          "name": "",
          "type": "address"
        }
      ],
      "name": "members",
      "outputs": [
        {
          "name": "addr",
          "type": "address"
        },
        {
          "name": "name",
          "type": "string"
        },
        {
          "name": "sharesOwned",
          "type": "uint256"
        },
        {
          "name": "dateAdded",
          "type": "uint256"
        },
        {
          "name": "verified",
          "type": "bool"
        },
        {
          "name": "deposit",
          "type": "uint256"
        },
        {
          "name": "pendingBuy",
          "type": "uint256"
        }
      ],
      "payable": false,
      "stateMutability": "view",
      "type": "function"
    },
    {
      "constant": false,
      "inputs": [],
      "name": "clearPendingBuy",
      "outputs": [],
      "payable": false,
      "stateMutability": "nonpayable",
      "type": "function"
    },
    {
      "constant": false,
      "inputs": [
        {
          "name": "to",
          "type": "address"
        },
        {
          "name": "sharesCount",
          "type": "uint256"
        }
      ],
      "name": "transferShare",
      "outputs": [],
      "payable": false,
      "stateMutability": "nonpayable",
      "type": "function"
    },
    {
      "constant": true,
      "inputs": [
        {
          "name": "",
          "type": "uint256"
        }
      ],
      "name": "membersList",
      "outputs": [
        {
          "name": "",
          "type": "address"
        }
      ],
      "payable": false,
      "stateMutability": "view",
      "type": "function"
    },
    {
      "constant": false,
      "inputs": [
        {
          "name": "_communityName",
          "type": "string"
        },
        {
          "name": "_totalShares",
          "type": "uint256"
        },
        {
          "name": "_unownedShares",
          "type": "uint256"
        },
        {
          "name": "_assetValue",
          "type": "uint256"
        },
        {
          "name": "name",
          "type": "string"
        }
      ],
      "name": "community",
      "outputs": [],
      "payable": false,
      "stateMutability": "nonpayable",
      "type": "function"
    },
    {
      "constant": true,
      "inputs": [],
      "name": "valuation",
      "outputs": [
        {
          "name": "",
          "type": "uint256"
        }
      ],
      "payable": false,
      "stateMutability": "view",
      "type": "function"
    },
    {
      "constant": true,
      "inputs": [],
      "name": "membersCount",
      "outputs": [
        {
          "name": "",
          "type": "uint256"
        }
      ],
      "payable": false,
      "stateMutability": "view",
      "type": "function"
    },
    {
      "constant": false,
      "inputs": [
        {
          "name": "amount",
          "type": "uint256"
        }
      ],
      "name": "withdraw",
      "outputs": [],
      "payable": false,
      "stateMutability": "nonpayable",
      "type": "function"
    },
    {
      "constant": true,
      "inputs": [],
      "name": "totalShares",
      "outputs": [
        {
          "name": "",
          "type": "uint256"
        }
      ],
      "payable": false,
      "stateMutability": "view",
      "type": "function"
    },
    {
      "constant": false,
      "inputs": [],
      "name": "withdraw",
      "outputs": [],
      "payable": false,
      "stateMutability": "nonpayable",
      "type": "function"
    },
    {
      "constant": true,
      "inputs": [],
      "name": "shareValue",
      "outputs": [
        {
          "name": "",
          "type": "uint256"
        }
      ],
      "payable": false,
      "stateMutability": "view",
      "type": "function"
    },
    {
      "constant": true,
      "inputs": [],
      "name": "unownedShares",
      "outputs": [
        {
          "name": "",
          "type": "uint256"
        }
      ],
      "payable": false,
      "stateMutability": "view",
      "type": "function"
    },
    {
      "constant": false,
      "inputs": [],
      "name": "getUnownedShares",
      "outputs": [],
      "payable": false,
      "stateMutability": "nonpayable",
      "type": "function"
    },
    {
      "constant": true,
      "inputs": [],
      "name": "myInfo",
      "outputs": [
        {
          "name": "",
          "type": "address"
        },
        {
          "name": "",
          "type": "string"
        },
        {
          "name": "",
          "type": "uint256"
        },
        {
          "name": "",
          "type": "uint256"
        },
        {
          "name": "",
          "type": "bool"
        },
        {
          "name": "",
          "type": "uint256"
        },
        {
          "name": "",
          "type": "uint256"
        }
      ],
      "payable": false,
      "stateMutability": "view",
      "type": "function"
    },
    {
      "constant": true,
      "inputs": [],
      "name": "owner",
      "outputs": [
        {
          "name": "",
          "type": "address"
        }
      ],
      "payable": false,
      "stateMutability": "view",
      "type": "function"
    },
    {
      "constant": false,
      "inputs": [
        {
          "name": "name",
          "type": "string"
        }
      ],
      "name": "addMember",
      "outputs": [],
      "payable": false,
      "stateMutability": "nonpayable",
      "type": "function"
    },
    {
      "constant": true,
      "inputs": [
        {
          "name": "addr",
          "type": "address"
        }
      ],
      "name": "isMember",
      "outputs": [
        {
          "name": "",
          "type": "bool"
        }
      ],
      "payable": false,
      "stateMutability": "view",
      "type": "function"
    },
    {
      "constant": false,
      "inputs": [
        {
          "name": "name",
          "type": "string"
        },
        {
          "name": "description",
          "type": "string"
        },
        {
          "name": "reward",
          "type": "uint256"
        }
      ],
      "name": "newTask",
      "outputs": [],
      "payable": false,
      "stateMutability": "nonpayable",
      "type": "function"
    },
    {
      "constant": false,
      "inputs": [
        {
          "name": "to",
          "type": "address"
        },
        {
          "name": "sharesCount",
          "type": "uint256"
        }
      ],
      "name": "sellShares",
      "outputs": [],
      "payable": false,
      "stateMutability": "nonpayable",
      "type": "function"
    },
    {
      "constant": true,
      "inputs": [],
      "name": "tasksCount",
      "outputs": [
        {
          "name": "",
          "type": "uint256"
        }
      ],
      "payable": false,
      "stateMutability": "view",
      "type": "function"
    },
    {
      "constant": false,
      "inputs": [
        {
          "name": "addr",
          "type": "address"
        },
        {
          "name": "name",
          "type": "string"
        }
      ],
      "name": "addMember",
      "outputs": [],
      "payable": false,
      "stateMutability": "nonpayable",
      "type": "function"
    },
    {
      "constant": true,
      "inputs": [],
      "name": "communityName",
      "outputs": [
        {
          "name": "",
          "type": "string"
        }
      ],
      "payable": false,
      "stateMutability": "view",
      "type": "function"
    },
    {
      "constant": true,
      "inputs": [
        {
          "name": "",
          "type": "uint256"
        }
      ],
      "name": "tasksList",
      "outputs": [
        {
          "name": "",
          "type": "address"
        }
      ],
      "payable": false,
      "stateMutability": "view",
      "type": "function"
    },
    {
      "constant": false,
      "inputs": [],
      "name": "deposit",
      "outputs": [],
      "payable": true,
      "stateMutability": "payable",
      "type": "function"
    },
    {
      "constant": false,
      "inputs": [
        {
          "name": "sharesCount",
          "type": "uint256"
        }
      ],
      "name": "buyShares",
      "outputs": [],
      "payable": true,
      "stateMutability": "payable",
      "type": "function"
    },
    {
      "constant": true,
      "inputs": [],
      "name": "communityInfo",
      "outputs": [
        {
          "name": "",
          "type": "address"
        },
        {
          "name": "",
          "type": "string"
        },
        {
          "name": "",
          "type": "uint256"
        },
        {
          "name": "",
          "type": "uint256"
        },
        {
          "name": "",
          "type": "uint256"
        },
        {
          "name": "",
          "type": "uint256"
        }
      ],
      "payable": false,
      "stateMutability": "view",
      "type": "function"
    },
    {
      "constant": false,
      "inputs": [
        {
          "name": "member",
          "type": "address"
        }
      ],
      "name": "verifyMember",
      "outputs": [],
      "payable": false,
      "stateMutability": "nonpayable",
      "type": "function"
    },
    {
      "inputs": [],
      "payable": false,
      "stateMutability": "nonpayable",
      "type": "constructor"
    },
    {
      "payable": true,
      "stateMutability": "payable",
      "type": "fallback"
    }
  ],
  "bytecode": "0x606060405234156200001057600080fd5b620000a46040805190810160405280600c81526020017f4d7920636f6d6d756e69747900000000000000000000000000000000000000008152506103e8610258620186a06040805190810160405280600581526020017f61646d696e000000000000000000000000000000000000000000000000000000815250620000aa6401000000000262000e25176401000000009004565b6200051a565b336000806101000a81548173ffffffffffffffffffffffffffffffffffffffff021916908373ffffffffffffffffffffffffffffffffffffffff16021790555060088054806001018281620001009190620003b5565b916000526020600020900160008060009054906101000a900473ffffffffffffffffffffffffffffffffffffffff16909190916101000a81548173ffffffffffffffffffffffffffffffffffffffff021916908373ffffffffffffffffffffffffffffffffffffffff16021790555050846001908051906020019062000188929190620003e4565b5083600281905550826003819055508160058190555060e0604051908101604052806000809054906101000a900473ffffffffffffffffffffffffffffffffffffffff1673ffffffffffffffffffffffffffffffffffffffff168152602001828152602001600354600254038152602001428152602001600115158152602001600081526020016000815250600660008060009054906101000a900473ffffffffffffffffffffffffffffffffffffffff1673ffffffffffffffffffffffffffffffffffffffff1673ffffffffffffffffffffffffffffffffffffffff16815260200190815260200160002060008201518160000160006101000a81548173ffffffffffffffffffffffffffffffffffffffff021916908373ffffffffffffffffffffffffffffffffffffffff1602179055506020820151816001019080519060200190620002d99291906200046b565b50604082015181600201556060820151816003015560808201518160040160006101000a81548160ff02191690831515021790555060a0820151816005015560c082015181600601559050506001600760008060009054906101000a900473ffffffffffffffffffffffffffffffffffffffff1673ffffffffffffffffffffffffffffffffffffffff1673ffffffffffffffffffffffffffffffffffffffff16815260200190815260200160002060006101000a81548160ff021916908315150217905550600160098190555060006004819055505050505050565b815481835581811511620003df57818360005260206000209182019101620003de9190620004f2565b5b505050565b828054600181600116156101000203166002900490600052602060002090601f016020900481019282601f106200042757805160ff191683800117855562000458565b8280016001018555821562000458579182015b82811115620004575782518255916020019190600101906200043a565b5b509050620004679190620004f2565b5090565b828054600181600116156101000203166002900490600052602060002090601f016020900481019282601f10620004ae57805160ff1916838001178555620004df565b82800160010185558215620004df579182015b82811115620004de578251825591602001919060010190620004c1565b5b509050620004ee9190620004f2565b5090565b6200051791905b8082111562000513576000816000905550600101620004f9565b5090565b90565b613cce806200052a6000396000f3006060604052600436106200017b576000357c0100000000000000000000000000000000000000000000000000000000900463ffffffff16806308ae4b0c146200017d578063091036b914620002ad57806312e868be14620002c557806313b8ad31146200030a5780631ed202d5146200037057806321a7cfe4146200042e578063297f9af0146200045a5780632e1a7d4d14620004865780633a98ef3914620004ac5780633ccfd60b14620004d8578063447b15f414620004f0578063596623ff146200051c5780636d473341146200054857806385b31d7b14620005605780638da5cb5b146200064e578063918f968714620006a6578063a230c5241462000706578063a9bcf66b146200075a578063b51d05341462000806578063bb6a0f07146200084b578063c127c2471462000877578063c6d572ae14620008f6578063cb02a880146200098a578063d0e30db014620009f0578063d1a93d1814620009fc578063d5a3782d1462000a16578063eae25d421462000af9575b005b34156200018957600080fd5b620001b7600480803573ffffffffffffffffffffffffffffffffffffffff1690602001909190505062000b35565b604051808873ffffffffffffffffffffffffffffffffffffffff1673ffffffffffffffffffffffffffffffffffffffff1681526020018060200187815260200186815260200185151515158152602001848152602001838152602001828103825288818154600181600116156101000203166002900481526020019150805460018160011615610100020316600290048015620002985780601f106200026c5761010080835404028352916020019162000298565b820191906000526020600020905b8154815290600101906020018083116200027a57829003601f168201915b50509850505050505050505060405180910390f35b3415620002b957600080fd5b620002c362000ba3565b005b3415620002d157600080fd5b62000308600480803573ffffffffffffffffffffffffffffffffffffffff1690602001909190803590602001909190505062000c50565b005b34156200031657600080fd5b6200032e600480803590602001909190505062000de5565b604051808273ffffffffffffffffffffffffffffffffffffffff1673ffffffffffffffffffffffffffffffffffffffff16815260200191505060405180910390f35b34156200037c57600080fd5b6200042c600480803590602001908201803590602001908080601f0160208091040260200160405190810160405280939291908181526020018383808284378201915050505050509190803590602001909190803590602001909190803590602001909190803590602001908201803590602001908080601f0160208091040260200160405190810160405280939291908181526020018383808284378201915050505050509190505062000e25565b005b34156200043a57600080fd5b6200044462001130565b6040518082815260200191505060405180910390f35b34156200046657600080fd5b6200047062001157565b6040518082815260200191505060405180910390f35b34156200049257600080fd5b620004aa60048080359060200190919050506200115d565b005b3415620004b857600080fd5b620004c2620012b6565b6040518082815260200191505060405180910390f35b3415620004e457600080fd5b620004ee620012bc565b005b3415620004fc57600080fd5b620005066200136e565b6040518082815260200191505060405180910390f35b34156200052857600080fd5b620005326200138d565b6040518082815260200191505060405180910390f35b34156200055457600080fd5b6200055e62001393565b005b34156200056c57600080fd5b620005766200164d565b604051808873ffffffffffffffffffffffffffffffffffffffff1673ffffffffffffffffffffffffffffffffffffffff1681526020018060200187815260200186815260200185151515158152602001848152602001838152602001828103825288818151815260200191508051906020019080838360005b838110156200060c578082015181840152602081019050620005ef565b50505050905090810190601f1680156200063a5780820380516001836020036101000a031916815260200191505b509850505050505050505060405180910390f35b34156200065a57600080fd5b6200066462001919565b604051808273ffffffffffffffffffffffffffffffffffffffff1673ffffffffffffffffffffffffffffffffffffffff16815260200191505060405180910390f35b3415620006b257600080fd5b62000704600480803590602001908201803590602001908080601f016020809104026020016040519081016040528093929190818152602001838380828437820191505050505050919050506200193e565b005b34156200071257600080fd5b62000740600480803573ffffffffffffffffffffffffffffffffffffffff1690602001909190505062001bb0565b604051808215151515815260200191505060405180910390f35b34156200076657600080fd5b62000804600480803590602001908201803590602001908080601f0160208091040260200160405190810160405280939291908181526020018383808284378201915050505050509190803590602001908201803590602001908080601f0160208091040260200160405190810160405280939291908181526020018383808284378201915050505050509190803590602001909190505062001c06565b005b34156200081257600080fd5b62000849600480803573ffffffffffffffffffffffffffffffffffffffff1690602001909190803590602001909190505062001eb1565b005b34156200085757600080fd5b620008616200208b565b6040518082815260200191505060405180910390f35b34156200088357600080fd5b620008f4600480803573ffffffffffffffffffffffffffffffffffffffff1690602001909190803590602001908201803590602001908080601f0160208091040260200160405190810160405280939291908181526020018383808284378201915050505050509190505062002091565b005b34156200090257600080fd5b6200090c62002360565b6040518080602001828103825283818151815260200191508051906020019080838360005b838110156200094e57808201518184015260208101905062000931565b50505050905090810190601f1680156200097c5780820380516001836020036101000a031916815260200191505b509250505060405180910390f35b34156200099657600080fd5b620009ae600480803590602001909190505062002402565b604051808273ffffffffffffffffffffffffffffffffffffffff1673ffffffffffffffffffffffffffffffffffffffff16815260200191505060405180910390f35b620009fa62002442565b005b62000a14600480803590602001909190505062002507565b005b341562000a2257600080fd5b62000a2c620025d1565b604051808773ffffffffffffffffffffffffffffffffffffffff1673ffffffffffffffffffffffffffffffffffffffff16815260200180602001868152602001858152602001848152602001838152602001828103825287818151815260200191508051906020019080838360005b8381101562000ab857808201518184015260208101905062000a9b565b50505050905090810190601f16801562000ae65780820380516001836020036101000a031916815260200191505b5097505050505050505060405180910390f35b341562000b0557600080fd5b62000b33600480803573ffffffffffffffffffffffffffffffffffffffff16906020019091905050620026c7565b005b60066020528060005260406000206000915090508060000160009054906101000a900473ffffffffffffffffffffffffffffffffffffffff169080600101908060020154908060030154908060040160009054906101000a900460ff16908060050154908060060154905087565b60011515600660003373ffffffffffffffffffffffffffffffffffffffff1673ffffffffffffffffffffffffffffffffffffffff16815260200190815260200160002060040160009054906101000a900460ff16151514151562000c0657600080fd5b6000600660003373ffffffffffffffffffffffffffffffffffffffff1673ffffffffffffffffffffffffffffffffffffffff16815260200190815260200160002060060181905550565b60011515600660003373ffffffffffffffffffffffffffffffffffffffff1673ffffffffffffffffffffffffffffffffffffffff16815260200190815260200160002060040160009054906101000a900460ff16151514151562000cb357600080fd5b3373ffffffffffffffffffffffffffffffffffffffff168273ffffffffffffffffffffffffffffffffffffffff161415151562000cef57600080fd5b80600660003373ffffffffffffffffffffffffffffffffffffffff1673ffffffffffffffffffffffffffffffffffffffff168152602001908152602001600020600201541015151562000d4157600080fd5b80600660008473ffffffffffffffffffffffffffffffffffffffff1673ffffffffffffffffffffffffffffffffffffffff1681526020019081526020016000206002016000828254019250508190555080600660003373ffffffffffffffffffffffffffffffffffffffff1673ffffffffffffffffffffffffffffffffffffffff168152602001908152602001600020600201600082825403925050819055505050565b60088181548110151562000df557fe5b90600052602060002090016000915054906101000a900473ffffffffffffffffffffffffffffffffffffffff1681565b336000806101000a81548173ffffffffffffffffffffffffffffffffffffffff021916908373ffffffffffffffffffffffffffffffffffffffff1602179055506008805480600101828162000e7b919062002781565b916000526020600020900160008060009054906101000a900473ffffffffffffffffffffffffffffffffffffffff16909190916101000a81548173ffffffffffffffffffffffffffffffffffffffff021916908373ffffffffffffffffffffffffffffffffffffffff16021790555050846001908051906020019062000f03929190620027b0565b5083600281905550826003819055508160058190555060e0604051908101604052806000809054906101000a900473ffffffffffffffffffffffffffffffffffffffff1673ffffffffffffffffffffffffffffffffffffffff168152602001828152602001600354600254038152602001428152602001600115158152602001600081526020016000815250600660008060009054906101000a900473ffffffffffffffffffffffffffffffffffffffff1673ffffffffffffffffffffffffffffffffffffffff1673ffffffffffffffffffffffffffffffffffffffff16815260200190815260200160002060008201518160000160006101000a81548173ffffffffffffffffffffffffffffffffffffffff021916908373ffffffffffffffffffffffffffffffffffffffff16021790555060208201518160010190805190602001906200105492919062002837565b50604082015181600201556060820151816003015560808201518160040160006101000a81548160ff02191690831515021790555060a0820151816005015560c082015181600601559050506001600760008060009054906101000a900473ffffffffffffffffffffffffffffffffffffffff1673ffffffffffffffffffffffffffffffffffffffff1673ffffffffffffffffffffffffffffffffffffffff16815260200190815260200160002060006101000a81548160ff021916908315150217905550600160098190555060006004819055505050505050565b60006004543073ffffffffffffffffffffffffffffffffffffffff16316005540103905090565b60095481565b60011515600660003373ffffffffffffffffffffffffffffffffffffffff1673ffffffffffffffffffffffffffffffffffffffff16815260200190815260200160002060040160009054906101000a900460ff161515141515620011c057600080fd5b600660003373ffffffffffffffffffffffffffffffffffffffff1673ffffffffffffffffffffffffffffffffffffffff1681526020019081526020016000206005015481111515156200121257600080fd5b80600660003373ffffffffffffffffffffffffffffffffffffffff1673ffffffffffffffffffffffffffffffffffffffff16815260200190815260200160002060050160008282540392505081905550806004600082825403925050819055503373ffffffffffffffffffffffffffffffffffffffff166108fc829081150290604051600060405180830381858888f193505050501515620012b357600080fd5b50565b60025481565b60011515600660003373ffffffffffffffffffffffffffffffffffffffff1673ffffffffffffffffffffffffffffffffffffffff16815260200190815260200160002060040160009054906101000a900460ff1615151415156200131f57600080fd5b6200136c600660003373ffffffffffffffffffffffffffffffffffffffff1673ffffffffffffffffffffffffffffffffffffffff168152602001908152602001600020600501546200115d565b565b60006002546200137d62001130565b8115156200138757fe5b04905090565b60035481565b60008060011515600660003373ffffffffffffffffffffffffffffffffffffffff1673ffffffffffffffffffffffffffffffffffffffff16815260200190815260200160002060040160009054906101000a900460ff161515141515620013f957600080fd5b60009150620014076200136e565b9050600660003373ffffffffffffffffffffffffffffffffffffffff1673ffffffffffffffffffffffffffffffffffffffff16815260200190815260200160002060060154600354101515620014a257600660003373ffffffffffffffffffffffffffffffffffffffff1673ffffffffffffffffffffffffffffffffffffffff168152602001908152602001600020600601549150620014a8565b60035491505b600660003373ffffffffffffffffffffffffffffffffffffffff1673ffffffffffffffffffffffffffffffffffffffff168152602001908152602001600020600501548183021115620015475780600660003373ffffffffffffffffffffffffffffffffffffffff1673ffffffffffffffffffffffffffffffffffffffff168152602001908152602001600020600501548115156200154357fe5b0491505b8160036000828254039250508190555081600660003373ffffffffffffffffffffffffffffffffffffffff1673ffffffffffffffffffffffffffffffffffffffff16815260200190815260200160002060020160008282540192505081905550808202600660003373ffffffffffffffffffffffffffffffffffffffff1673ffffffffffffffffffffffffffffffffffffffff1681526020019081526020016000206005016000828254039250508190555081600660003373ffffffffffffffffffffffffffffffffffffffff1673ffffffffffffffffffffffffffffffffffffffff168152602001908152602001600020600601600082825403925050819055505050565b600062001659620028be565b6000806000806000600660003373ffffffffffffffffffffffffffffffffffffffff1673ffffffffffffffffffffffffffffffffffffffff16815260200190815260200160002060000160009054906101000a900473ffffffffffffffffffffffffffffffffffffffff16600660003373ffffffffffffffffffffffffffffffffffffffff1673ffffffffffffffffffffffffffffffffffffffff168152602001908152602001600020600101600660003373ffffffffffffffffffffffffffffffffffffffff1673ffffffffffffffffffffffffffffffffffffffff16815260200190815260200160002060020154600660003373ffffffffffffffffffffffffffffffffffffffff1673ffffffffffffffffffffffffffffffffffffffff16815260200190815260200160002060030154600660003373ffffffffffffffffffffffffffffffffffffffff1673ffffffffffffffffffffffffffffffffffffffff16815260200190815260200160002060040160009054906101000a900460ff16600660003373ffffffffffffffffffffffffffffffffffffffff1673ffffffffffffffffffffffffffffffffffffffff16815260200190815260200160002060050154600660003373ffffffffffffffffffffffffffffffffffffffff1673ffffffffffffffffffffffffffffffffffffffff16815260200190815260200160002060060154858054600181600116156101000203166002900480601f016020809104026020016040519081016040528092919081815260200182805460018160011615610100020316600290048015620018fb5780601f10620018cf57610100808354040283529160200191620018fb565b820191906000526020600020905b815481529060010190602001808311620018dd57829003601f168201915b50505050509550965096509650965096509650965090919293949596565b6000809054906101000a900473ffffffffffffffffffffffffffffffffffffffff1681565b60001515600760003373ffffffffffffffffffffffffffffffffffffffff1673ffffffffffffffffffffffffffffffffffffffff16815260200190815260200160002060009054906101000a900460ff1615151415156200199e57600080fd5b60088054806001018281620019b4919062002781565b9160005260206000209001600033909190916101000a81548173ffffffffffffffffffffffffffffffffffffffff021916908373ffffffffffffffffffffffffffffffffffffffff1602179055505060e0604051908101604052803373ffffffffffffffffffffffffffffffffffffffff16815260200182815260200160008152602001428152602001600015158152602001600081526020016000815250600660003373ffffffffffffffffffffffffffffffffffffffff1673ffffffffffffffffffffffffffffffffffffffff16815260200190815260200160002060008201518160000160006101000a81548173ffffffffffffffffffffffffffffffffffffffff021916908373ffffffffffffffffffffffffffffffffffffffff160217905550602082015181600101908051906020019062001af792919062002837565b50604082015181600201556060820151816003015560808201518160040160006101000a81548160ff02191690831515021790555060a0820151816005015560c082015181600601559050506009600081548092919060010191905055506001600760003373ffffffffffffffffffffffffffffffffffffffff1673ffffffffffffffffffffffffffffffffffffffff16815260200190815260200160002060006101000a81548160ff02191690831515021790555050565b6000600760008373ffffffffffffffffffffffffffffffffffffffff1673ffffffffffffffffffffffffffffffffffffffff16815260200190815260200160002060009054906101000a900460ff169050919050565b60008060009054906101000a900473ffffffffffffffffffffffffffffffffffffffff1673ffffffffffffffffffffffffffffffffffffffff163373ffffffffffffffffffffffffffffffffffffffff1614151562001c6457600080fd5b3084846000809054906101000a900473ffffffffffffffffffffffffffffffffffffffff1662001c93620028d2565b808573ffffffffffffffffffffffffffffffffffffffff1673ffffffffffffffffffffffffffffffffffffffff16815260200180602001806020018473ffffffffffffffffffffffffffffffffffffffff1673ffffffffffffffffffffffffffffffffffffffff168152602001838103835286818151815260200191508051906020019080838360005b8381101562001d3a57808201518184015260208101905062001d1d565b50505050905090810190601f16801562001d685780820380516001836020036101000a031916815260200191505b50838103825285818151815260200191508051906020019080838360005b8381101562001da357808201518184015260208101905062001d86565b50505050905090810190601f16801562001dd15780820380516001836020036101000a031916815260200191505b509650505050505050604051809103906000f080151562001df157600080fd5b9050600a805480600101828162001e09919062002781565b9160005260206000209001600083909190916101000a81548173ffffffffffffffffffffffffffffffffffffffff021916908373ffffffffffffffffffffffffffffffffffffffff16021790555050600b600081548092919060010191905055508073ffffffffffffffffffffffffffffffffffffffff166108fc839081150290604051600060405180830381858888f19350505050151562001eab57600080fd5b50505050565b600060011515600660003373ffffffffffffffffffffffffffffffffffffffff1673ffffffffffffffffffffffffffffffffffffffff16815260200190815260200160002060040160009054906101000a900460ff16151514151562001f1657600080fd5b3373ffffffffffffffffffffffffffffffffffffffff168373ffffffffffffffffffffffffffffffffffffffff161415151562001f5257600080fd5b62001f5c6200136e565b82029050600660008473ffffffffffffffffffffffffffffffffffffffff1673ffffffffffffffffffffffffffffffffffffffff16815260200190815260200160002060050154811115151562001fb257600080fd5b3073ffffffffffffffffffffffffffffffffffffffff1631811115151562001fd957600080fd5b80600660008573ffffffffffffffffffffffffffffffffffffffff1673ffffffffffffffffffffffffffffffffffffffff168152602001908152602001600020600501600082825403925050819055508060046000828254039250508190555062002045838362000c50565b3373ffffffffffffffffffffffffffffffffffffffff166108fc829081150290604051600060405180830381858888f1935050505015156200208657600080fd5b505050565b600b5481565b6000809054906101000a900473ffffffffffffffffffffffffffffffffffffffff1673ffffffffffffffffffffffffffffffffffffffff163373ffffffffffffffffffffffffffffffffffffffff16141515620020ed57600080fd5b60001515600760008473ffffffffffffffffffffffffffffffffffffffff1673ffffffffffffffffffffffffffffffffffffffff16815260200190815260200160002060009054906101000a900460ff1615151415156200214d57600080fd5b6008805480600101828162002163919062002781565b9160005260206000209001600084909190916101000a81548173ffffffffffffffffffffffffffffffffffffffff021916908373ffffffffffffffffffffffffffffffffffffffff1602179055505060e0604051908101604052808373ffffffffffffffffffffffffffffffffffffffff16815260200182815260200160008152602001428152602001600015158152602001600081526020016000815250600660008473ffffffffffffffffffffffffffffffffffffffff1673ffffffffffffffffffffffffffffffffffffffff16815260200190815260200160002060008201518160000160006101000a81548173ffffffffffffffffffffffffffffffffffffffff021916908373ffffffffffffffffffffffffffffffffffffffff1602179055506020820151816001019080519060200190620022a692919062002837565b50604082015181600201556060820151816003015560808201518160040160006101000a81548160ff02191690831515021790555060a0820151816005015560c082015181600601559050506009600081548092919060010191905055506001600760008473ffffffffffffffffffffffffffffffffffffffff1673ffffffffffffffffffffffffffffffffffffffff16815260200190815260200160002060006101000a81548160ff0219169083151502179055505050565b60018054600181600116156101000203166002900480601f016020809104026020016040519081016040528092919081815260200182805460018160011615610100020316600290048015620023fa5780601f10620023ce57610100808354040283529160200191620023fa565b820191906000526020600020905b815481529060010190602001808311620023dc57829003601f168201915b505050505081565b600a818154811015156200241257fe5b90600052602060002090016000915054906101000a900473ffffffffffffffffffffffffffffffffffffffff1681565b60011515600660003373ffffffffffffffffffffffffffffffffffffffff1673ffffffffffffffffffffffffffffffffffffffff16815260200190815260200160002060040160009054906101000a900460ff161515141515620024a557600080fd5b34600660003373ffffffffffffffffffffffffffffffffffffffff1673ffffffffffffffffffffffffffffffffffffffff1681526020019081526020016000206005016000828254019250508190555034600460008282540192505081905550565b60011515600660003373ffffffffffffffffffffffffffffffffffffffff1673ffffffffffffffffffffffffffffffffffffffff16815260200190815260200160002060040160009054906101000a900460ff1615151415156200256a57600080fd5b6200257462002442565b80600660003373ffffffffffffffffffffffffffffffffffffffff1673ffffffffffffffffffffffffffffffffffffffff16815260200190815260200160002060060160008282540192505081905550620025ce62001393565b50565b6000620025dd620028be565b6000806000806000809054906101000a900473ffffffffffffffffffffffffffffffffffffffff166001600254600354600454600554848054600181600116156101000203166002900480601f016020809104026020016040519081016040528092919081815260200182805460018160011615610100020316600290048015620026ac5780601f106200268057610100808354040283529160200191620026ac565b820191906000526020600020905b8154815290600101906020018083116200268e57829003601f168201915b50505050509450955095509550955095509550909192939495565b6000809054906101000a900473ffffffffffffffffffffffffffffffffffffffff1673ffffffffffffffffffffffffffffffffffffffff163373ffffffffffffffffffffffffffffffffffffffff161415156200272357600080fd5b6001600660008373ffffffffffffffffffffffffffffffffffffffff1673ffffffffffffffffffffffffffffffffffffffff16815260200190815260200160002060040160006101000a81548160ff02191690831515021790555050565b815481835581811511620027ab57818360005260206000209182019101620027aa9190620028e3565b5b505050565b828054600181600116156101000203166002900490600052602060002090601f016020900481019282601f10620027f357805160ff191683800117855562002824565b8280016001018555821562002824579182015b828111156200282357825182559160200191906001019062002806565b5b509050620028339190620028e3565b5090565b828054600181600116156101000203166002900490600052602060002090601f016020900481019282601f106200287a57805160ff1916838001178555620028ab565b82800160010185558215620028ab579182015b82811115620028aa5782518255916020019190600101906200288d565b5b509050620028ba9190620028e3565b5090565b602060405190810160405280600081525090565b604051611397806200290c83390190565b6200290891905b8082111562002904576000816000905550600101620028ea565b5090565b905600606060405234156200001057600080fd5b60405162001397380380620013978339810160405280805190602001909190805182019190602001805182019190602001805190602001909190505083600960006101000a81548173ffffffffffffffffffffffffffffffffffffffff021916908373ffffffffffffffffffffffffffffffffffffffff160217905550806000806101000a81548173ffffffffffffffffffffffffffffffffffffffff021916908373ffffffffffffffffffffffffffffffffffffffff160217905550426001819055508260029080519060200190620000ec9291906200013d565b508160039080519060200190620001059291906200013d565b506000600460006101000a81548160ff021916908360048111156200012657fe5b0217905550600060078190555050505050620001ec565b828054600181600116156101000203166002900490600052602060002090601f016020900481019282601f106200018057805160ff1916838001178555620001b1565b82800160010185558215620001b1579182015b82811115620001b057825182559160200191906001019062000193565b5b509050620001c09190620001c4565b5090565b620001e991905b80821115620001e5576000816000905550600101620001cb565b5090565b90565b61119b80620001fc6000396000f3006060604052600436106100d0576000357c0100000000000000000000000000000000000000000000000000000000900463ffffffff16806306fdde03146100d2578063200d2ed2146101605780633dbf8cc51461019757806354f0ee72146101fa5780637284e4161461024f5780638594412c146102dd5780638da5cb5b14610302578063ac72255114610357578063b86c3436146104d3578063cf09e0d0146104e8578063def1c2c314610511578063f41e612d14610526578063f7d9ae731461055f578063fb3c33d314610574575b005b34156100dd57600080fd5b6100e561059d565b6040518080602001828103825283818151815260200191508051906020019080838360005b8381101561012557808201518184015260208101905061010a565b50505050905090810190601f1680156101525780820380516001836020036101000a031916815260200191505b509250505060405180910390f35b341561016b57600080fd5b61017361063b565b6040518082600481111561018357fe5b60ff16815260200191505060405180910390f35b34156101a257600080fd5b6101b8600480803590602001909190505061064e565b604051808273ffffffffffffffffffffffffffffffffffffffff1673ffffffffffffffffffffffffffffffffffffffff16815260200191505060405180910390f35b341561020557600080fd5b61020d61068d565b604051808273ffffffffffffffffffffffffffffffffffffffff1673ffffffffffffffffffffffffffffffffffffffff16815260200191505060405180910390f35b341561025a57600080fd5b6102626106b3565b6040518080602001828103825283818151815260200191508051906020019080838360005b838110156102a2578082015181840152602081019050610287565b50505050905090810190601f1680156102cf5780820380516001836020036101000a031916815260200191505b509250505060405180910390f35b34156102e857600080fd5b61030060048080351515906020019091905050610751565b005b341561030d57600080fd5b6103156108d5565b604051808273ffffffffffffffffffffffffffffffffffffffff1673ffffffffffffffffffffffffffffffffffffffff16815260200191505060405180910390f35b341561036257600080fd5b61036a6108fa565b604051808773ffffffffffffffffffffffffffffffffffffffff1673ffffffffffffffffffffffffffffffffffffffff16815260200186815260200180602001806020018560048111156103ba57fe5b60ff1681526020018473ffffffffffffffffffffffffffffffffffffffff1673ffffffffffffffffffffffffffffffffffffffff168152602001838103835287818151815260200191508051906020019080838360005b8381101561042c578082015181840152602081019050610411565b50505050905090810190601f1680156104595780820380516001836020036101000a031916815260200191505b50838103825286818151815260200191508051906020019080838360005b83811015610492578082015181840152602081019050610477565b50505050905090810190601f1680156104bf5780820380516001836020036101000a031916815260200191505b509850505050505050505060405180910390f35b34156104de57600080fd5b6104e6610ab8565b005b34156104f357600080fd5b6104fb610c02565b6040518082815260200191505060405180910390f35b341561051c57600080fd5b610524610c08565b005b341561053157600080fd5b61055d600480803573ffffffffffffffffffffffffffffffffffffffff16906020019091905050610e4f565b005b341561056a57600080fd5b610572610fa5565b005b341561057f57600080fd5b610587611104565b6040518082815260200191505060405180910390f35b60028054600181600116156101000203166002900480601f0160208091040260200160405190810160405280929190818152602001828054600181600116156101000203166002900480156106335780601f1061060857610100808354040283529160200191610633565b820191906000526020600020905b81548152906001019060200180831161061657829003601f168201915b505050505081565b600460009054906101000a900460ff1681565b60058181548110151561065d57fe5b90600052602060002090016000915054906101000a900473ffffffffffffffffffffffffffffffffffffffff1681565b600860009054906101000a900473ffffffffffffffffffffffffffffffffffffffff1681565b60038054600181600116156101000203166002900480601f0160208091040260200160405190810160405280929190818152602001828054600181600116156101000203166002900480156107495780601f1061071e57610100808354040283529160200191610749565b820191906000526020600020905b81548152906001019060200180831161072c57829003601f168201915b505050505081565b6000809054906101000a900473ffffffffffffffffffffffffffffffffffffffff1673ffffffffffffffffffffffffffffffffffffffff163373ffffffffffffffffffffffffffffffffffffffff161415156107ac57600080fd5b600260048111156107b957fe5b600460009054906101000a900460ff1660048111156107d457fe5b1415156107e057600080fd5b8015610888576003600460006101000a81548160ff0219169083600481111561080557fe5b0217905550600860009054906101000a900473ffffffffffffffffffffffffffffffffffffffff1673ffffffffffffffffffffffffffffffffffffffff166108fc3073ffffffffffffffffffffffffffffffffffffffff16319081150290604051600060405180830381858888f19350505050151561088357600080fd5b6108d2565b6000600460006101000a81548160ff021916908360048111156108a757fe5b0217905550600860006101000a81549073ffffffffffffffffffffffffffffffffffffffff02191690555b50565b6000809054906101000a900473ffffffffffffffffffffffffffffffffffffffff1681565b60008061090561110a565b61090d61110a565b6000806000809054906101000a900473ffffffffffffffffffffffffffffffffffffffff1660015460026003600460009054906101000a900460ff16600860009054906101000a900473ffffffffffffffffffffffffffffffffffffffff16838054600181600116156101000203166002900480601f016020809104026020016040519081016040528092919081815260200182805460018160011615610100020316600290048015610a015780601f106109d657610100808354040283529160200191610a01565b820191906000526020600020905b8154815290600101906020018083116109e457829003601f168201915b50505050509350828054600181600116156101000203166002900480601f016020809104026020016040519081016040528092919081815260200182805460018160011615610100020316600290048015610a9d5780601f10610a7257610100808354040283529160200191610a9d565b820191906000526020600020905b815481529060010190602001808311610a8057829003601f168201915b50505050509250955095509550955095509550909192939495565b6000809054906101000a900473ffffffffffffffffffffffffffffffffffffffff1673ffffffffffffffffffffffffffffffffffffffff163373ffffffffffffffffffffffffffffffffffffffff16141515610b1357600080fd5b60016004811115610b2057fe5b600460009054906101000a900460ff166004811115610b3b57fe5b141515610b4757600080fd5b3373ffffffffffffffffffffffffffffffffffffffff16600860009054906101000a900473ffffffffffffffffffffffffffffffffffffffff1673ffffffffffffffffffffffffffffffffffffffff16141515610ba357600080fd5b6002600460006101000a81548160ff02191690836004811115610bc257fe5b0217905550600860009054906101000a900473ffffffffffffffffffffffffffffffffffffffff1673ffffffffffffffffffffffffffffffffffffffff16ff5b60015481565b600960009054906101000a900473ffffffffffffffffffffffffffffffffffffffff1673ffffffffffffffffffffffffffffffffffffffff1663a230c524336000604051602001526040518263ffffffff167c0100000000000000000000000000000000000000000000000000000000028152600401808273ffffffffffffffffffffffffffffffffffffffff1673ffffffffffffffffffffffffffffffffffffffff168152602001915050602060405180830381600087803b1515610ccd57600080fd5b6102c65a03f11515610cde57600080fd5b505050604051805190501515610cf357600080fd5b60006004811115610d0057fe5b600460009054906101000a900460ff166004811115610d1b57fe5b141515610d2757600080fd5b600660003373ffffffffffffffffffffffffffffffffffffffff1673ffffffffffffffffffffffffffffffffffffffff16815260200190815260200160002060009054906101000a900460ff16151515610d8057600080fd5b60058054806001018281610d94919061111e565b9160005260206000209001600033909190916101000a81548173ffffffffffffffffffffffffffffffffffffffff021916908373ffffffffffffffffffffffffffffffffffffffff160217905550506007600081548092919060010191905055506001600660003373ffffffffffffffffffffffffffffffffffffffff1673ffffffffffffffffffffffffffffffffffffffff16815260200190815260200160002060006101000a81548160ff021916908315150217905550565b6000809054906101000a900473ffffffffffffffffffffffffffffffffffffffff1673ffffffffffffffffffffffffffffffffffffffff163373ffffffffffffffffffffffffffffffffffffffff16141515610eaa57600080fd5b60006004811115610eb757fe5b600460009054906101000a900460ff166004811115610ed257fe5b141515610ede57600080fd5b60011515600660008373ffffffffffffffffffffffffffffffffffffffff1673ffffffffffffffffffffffffffffffffffffffff16815260200190815260200160002060009054906101000a900460ff161515141515610f3d57600080fd5b6001600460006101000a81548160ff02191690836004811115610f5c57fe5b021790555080600860006101000a81548173ffffffffffffffffffffffffffffffffffffffff021916908373ffffffffffffffffffffffffffffffffffffffff16021790555050565b6000809054906101000a900473ffffffffffffffffffffffffffffffffffffffff1673ffffffffffffffffffffffffffffffffffffffff163373ffffffffffffffffffffffffffffffffffffffff1614151561100057600080fd5b6003600481111561100d57fe5b600460009054906101000a900460ff16600481111561102857fe5b1415801561105b575060048081111561103d57fe5b600460009054906101000a900460ff16600481111561105857fe5b14155b151561106657600080fd5b60048060006101000a81548160ff0219169083600481111561108457fe5b0217905550600960009054906101000a900473ffffffffffffffffffffffffffffffffffffffff1673ffffffffffffffffffffffffffffffffffffffff166108fc3073ffffffffffffffffffffffffffffffffffffffff16319081150290604051600060405180830381858888f19350505050151561110257600080fd5b565b60075481565b602060405190810160405280600081525090565b81548183558181151161114557818360005260206000209182019101611144919061114a565b5b505050565b61116c91905b80821115611168576000816000905550600101611150565b5090565b905600a165627a7a7230582033068da3554145022a0fb5858f72509941fa812fa3d1718ad947ed9f884337c50029a165627a7a723058204d2652874490ecc98ebda8b433e54aae92bb3e4608bb593d96ec15509a9cb2f20029",
  "source": "pragma solidity ^0.4.17;\nimport \"./Task.sol\";\n\ncontract Community {\n    \n    //structs\n    struct Member {\n        address addr;\n        string name;\n        uint sharesOwned;\n        uint dateAdded;\n        bool verified;\n        \n        uint256 deposit;\n        uint pendingBuy;\n    }\n    \n    //storage\n    address public owner;\n    string public communityName;\n    uint public totalShares;\n    uint public unownedShares;\n    uint256 totalDeposits;\n    uint256 assetValue;\n    \n    mapping(address => Member) public members;\n\tmapping(address => bool) public isMember;\n    address[] public membersList;\n    uint public membersCount;\n    \n    address[] public tasksList;\n    uint public tasksCount;\n    \n    //modifiers\n    modifier onlyOwner {\n        require(msg.sender == owner);\n        _;\n    }\n    modifier onlyMember {\n        require(members[msg.sender].verified == true);\n        _;\n    }\n    \n    function Community() public {\n        community(\"My community\", 1000, 600, 100000, \"admin\");\n    }\n    \n    function() public payable {}\n    \n    //functions\n    function community(string _communityName, uint _totalShares, uint _unownedShares, uint256 _assetValue, string name) public {\n        owner = msg.sender;\n        membersList.push(owner);\n        communityName = _communityName;\n        totalShares = _totalShares;\n        unownedShares = _unownedShares;\n        assetValue = _assetValue;\n        members[owner] = Member(owner, name, totalShares - unownedShares, now, true, 0, 0);\n\t\tisMember[owner] = true;\n        membersCount = 1;\n        totalDeposits = 0;\n    }\n    \n    function addMember(address addr, string name) public onlyOwner {\n\t\trequire(isMember[addr] == false);\n        membersList.push(addr);\n        members[addr] = Member(addr, name, 0, now, false, 0, 0);\n        membersCount++;\n\t\tisMember[addr] = true;\n    }\n\n\tfunction addMember(string name) public {\n\t\trequire(isMember[msg.sender] == false);\n\t\tmembersList.push(msg.sender);\n\t\tmembers[msg.sender] = Member(msg.sender, name, 0, now, false, 0, 0);\n        membersCount++;\n\t\tisMember[msg.sender] = true;\n\t}\n    \n    function isMember(address addr) public constant returns (bool) {\n        return isMember[addr];\n    }\n    \n    function verifyMember(address member) public onlyOwner{\n        members[member].verified = true;\n    }\n    \n    function myInfo() public constant returns (address,string,uint,uint,bool,uint256,uint) {\n        return (\n            members[msg.sender].addr,\n            members[msg.sender].name,\n            members[msg.sender].sharesOwned,\n            members[msg.sender].dateAdded,\n            members[msg.sender].verified,\n            members[msg.sender].deposit,\n            members[msg.sender].pendingBuy\n        );\n    }\n\n\tfunction communityInfo() public constant returns (address,string,uint,uint,uint256,uint256) {\n\t\treturn (owner,communityName,totalShares,unownedShares,totalDeposits,assetValue);\n\t}\n    \n    function deposit() public payable onlyMember {\n        // require((sharesBuyRequest[msg.sender] + numShares) <= totalShares);\n        members[msg.sender].deposit += msg.value;\n        totalDeposits += msg.value;\n    }\n    \n    function withdraw(uint256 amount) public onlyMember {\n        require(amount <= members[msg.sender].deposit);\n        members[msg.sender].deposit -= amount;\n        totalDeposits -= amount;\n        msg.sender.transfer(amount);\n    }\n    \n    function withdraw() public onlyMember {\n        withdraw(members[msg.sender].deposit);\n    }\n    \n    function valuation() public constant returns (uint256) {\n        return assetValue + this.balance - totalDeposits;\n    }\n    \n    function shareValue() public constant returns (uint256) {\n        return valuation() / totalShares;\n    }\n    \n    function sellShares(address to, uint sharesCount) public onlyMember {\n        require(to != msg.sender);\n        uint256 value = sharesCount*shareValue();\n        require(value <= members[to].deposit);\n        require(value <= this.balance);\n        members[to].deposit -= value;\n        totalDeposits -= value;\n        transferShare(to, sharesCount);\n        msg.sender.transfer(value);\n    }\n    \n    function transferShare(address to, uint sharesCount) public onlyMember {\n        require(to != msg.sender);\n        require(members[msg.sender].sharesOwned >= sharesCount);\n        members[to].sharesOwned += sharesCount;\n        members[msg.sender].sharesOwned -= sharesCount;\n    }\n    \n    function buyShares(uint sharesCount) public onlyMember payable{\n        deposit();\n        members[msg.sender].pendingBuy += sharesCount;\n        getUnownedShares();\n    }\n    \n    function clearPendingBuy() public onlyMember {\n        members[msg.sender].pendingBuy = 0;\n    }\n    \n    function getUnownedShares() public onlyMember {\n        uint shares = 0;\n        uint256 currentShareValue = shareValue();\n        \n        if(unownedShares >= members[msg.sender].pendingBuy) {\n            shares = members[msg.sender].pendingBuy;\n        } else {\n            shares = unownedShares;\n        }\n        \n        if(shares*currentShareValue > members[msg.sender].deposit) {\n            shares = members[msg.sender].deposit / currentShareValue;\n        }\n        \n        unownedShares -= shares;\n        members[msg.sender].sharesOwned += shares;\n        members[msg.sender].deposit -= shares*currentShareValue;\n        members[msg.sender].pendingBuy -= shares;\n        \n    }\n    \n    function newTask(string name, string description, uint256 reward) public onlyOwner {\n        // require((valuation()/10) > reward);\n\t\taddress task = new Task(this, name, description, owner);\n        tasksList.push(task);\n\t\ttasksCount++;\n        if(!task.send(reward)){\n\t\t\tthrow;\n\t\t}\n    }\n}",
  "sourcePath": "/media/mdakram28/Data/projects/nodejs/agroshare/contracts/Community.sol",
  "compiler": {
    "name": "solc",
    "version": "0.4.18+commit.9cf6e910.Emscripten.clang"
  },
  "schemaVersion": "1.0.1",
  "updatedAt": "2018-02-26T19:05:58.161Z"
}