{
  "contractName": "Task",
  "abi": [
    {
      "constant": true,
      "inputs": [],
      "name": "name",
      "outputs": [
        {
          "name": "",
          "type": "string"
        }
      ],
      "payable": false,
      "stateMutability": "view",
      "type": "function"
    },
    {
      "constant": true,
      "inputs": [],
      "name": "status",
      "outputs": [
        {
          "name": "",
          "type": "uint8"
        }
      ],
      "payable": false,
      "stateMutability": "view",
      "type": "function"
    },
    {
      "constant": true,
      "inputs": [
        {
          "name": "",
          "type": "uint256"
        }
      ],
      "name": "volunteers",
      "outputs": [
        {
          "name": "",
          "type": "address"
        }
      ],
      "payable": false,
      "stateMutability": "view",
      "type": "function"
    },
    {
      "constant": true,
      "inputs": [],
      "name": "assignedVolunteer",
      "outputs": [
        {
          "name": "",
          "type": "address"
        }
      ],
      "payable": false,
      "stateMutability": "view",
      "type": "function"
    },
    {
      "constant": true,
      "inputs": [],
      "name": "description",
      "outputs": [
        {
          "name": "",
          "type": "string"
        }
      ],
      "payable": false,
      "stateMutability": "view",
      "type": "function"
    },
    {
      "constant": false,
      "inputs": [
        {
          "name": "verified",
          "type": "bool"
        }
      ],
      "name": "verifyTask",
      "outputs": [],
      "payable": false,
      "stateMutability": "nonpayable",
      "type": "function"
    },
    {
      "constant": true,
      "inputs": [],
      "name": "owner",
      "outputs": [
        {
          "name": "",
          "type": "address"
        }
      ],
      "payable": false,
      "stateMutability": "view",
      "type": "function"
    },
    {
      "constant": true,
      "inputs": [],
      "name": "taskInfo",
      "outputs": [
        {
          "name": "",
          "type": "address"
        },
        {
          "name": "",
          "type": "uint256"
        },
        {
          "name": "",
          "type": "string"
        },
        {
          "name": "",
          "type": "string"
        },
        {
          "name": "",
          "type": "uint8"
        },
        {
          "name": "",
          "type": "address"
        }
      ],
      "payable": false,
      "stateMutability": "view",
      "type": "function"
    },
    {
      "constant": false,
      "inputs": [],
      "name": "completedTask",
      "outputs": [],
      "payable": false,
      "stateMutability": "nonpayable",
      "type": "function"
    },
    {
      "constant": true,
      "inputs": [],
      "name": "createdAt",
      "outputs": [
        {
          "name": "",
          "type": "uint256"
        }
      ],
      "payable": false,
      "stateMutability": "view",
      "type": "function"
    },
    {
      "constant": false,
      "inputs": [],
      "name": "addVolunteer",
      "outputs": [],
      "payable": false,
      "stateMutability": "nonpayable",
      "type": "function"
    },
    {
      "constant": false,
      "inputs": [
        {
          "name": "volunteer",
          "type": "address"
        }
      ],
      "name": "assignTask",
      "outputs": [],
      "payable": false,
      "stateMutability": "nonpayable",
      "type": "function"
    },
    {
      "constant": false,
      "inputs": [],
      "name": "cancelTask",
      "outputs": [],
      "payable": false,
      "stateMutability": "nonpayable",
      "type": "function"
    },
    {
      "constant": true,
      "inputs": [],
      "name": "volunteersCount",
      "outputs": [
        {
          "name": "",
          "type": "uint256"
        }
      ],
      "payable": false,
      "stateMutability": "view",
      "type": "function"
    },
    {
      "inputs": [
        {
          "name": "_c",
          "type": "address"
        },
        {
          "name": "_name",
          "type": "string"
        },
        {
          "name": "_description",
          "type": "string"
        }
      ],
      "payable": false,
      "stateMutability": "nonpayable",
      "type": "constructor"
    },
    {
      "payable": true,
      "stateMutability": "payable",
      "type": "fallback"
    }
  ],
  "bytecode": "0x606060405234156200001057600080fd5b604051620013e1380380620013e18339810160405280805190602001909190805182019190602001805182019190505082600960006101000a81548173ffffffffffffffffffffffffffffffffffffffff021916908373ffffffffffffffffffffffffffffffffffffffff160217905550336000806101000a81548173ffffffffffffffffffffffffffffffffffffffff021916908373ffffffffffffffffffffffffffffffffffffffff160217905550426001819055508160029080519060200190620000e092919062000130565b508060039080519060200190620000f992919062000130565b506000600460006101000a81548160ff021916908360048111156200011a57fe5b02179055506000600781905550505050620001df565b828054600181600116156101000203166002900490600052602060002090601f016020900481019282601f106200017357805160ff1916838001178555620001a4565b82800160010185558215620001a4579182015b82811115620001a357825182559160200191906001019062000186565b5b509050620001b39190620001b7565b5090565b620001dc91905b80821115620001d8576000816000905550600101620001be565b5090565b90565b6111f280620001ef6000396000f3006060604052600436106100d0576000357c0100000000000000000000000000000000000000000000000000000000900463ffffffff16806306fdde03146100d2578063200d2ed2146101605780633dbf8cc51461019757806354f0ee72146101fa5780637284e4161461024f5780638594412c146102dd5780638da5cb5b14610302578063ac72255114610357578063b86c3436146104d3578063cf09e0d0146104e8578063def1c2c314610511578063f41e612d14610526578063f7d9ae731461055f578063fb3c33d314610574575b005b34156100dd57600080fd5b6100e561059d565b6040518080602001828103825283818151815260200191508051906020019080838360005b8381101561012557808201518184015260208101905061010a565b50505050905090810190601f1680156101525780820380516001836020036101000a031916815260200191505b509250505060405180910390f35b341561016b57600080fd5b61017361063b565b6040518082600481111561018357fe5b60ff16815260200191505060405180910390f35b34156101a257600080fd5b6101b8600480803590602001909190505061064e565b604051808273ffffffffffffffffffffffffffffffffffffffff1673ffffffffffffffffffffffffffffffffffffffff16815260200191505060405180910390f35b341561020557600080fd5b61020d61068d565b604051808273ffffffffffffffffffffffffffffffffffffffff1673ffffffffffffffffffffffffffffffffffffffff16815260200191505060405180910390f35b341561025a57600080fd5b6102626106b3565b6040518080602001828103825283818151815260200191508051906020019080838360005b838110156102a2578082015181840152602081019050610287565b50505050905090810190601f1680156102cf5780820380516001836020036101000a031916815260200191505b509250505060405180910390f35b34156102e857600080fd5b61030060048080351515906020019091905050610751565b005b341561030d57600080fd5b6103156108d5565b604051808273ffffffffffffffffffffffffffffffffffffffff1673ffffffffffffffffffffffffffffffffffffffff16815260200191505060405180910390f35b341561036257600080fd5b61036a6108fa565b604051808773ffffffffffffffffffffffffffffffffffffffff1673ffffffffffffffffffffffffffffffffffffffff16815260200186815260200180602001806020018560048111156103ba57fe5b60ff1681526020018473ffffffffffffffffffffffffffffffffffffffff1673ffffffffffffffffffffffffffffffffffffffff168152602001838103835287818151815260200191508051906020019080838360005b8381101561042c578082015181840152602081019050610411565b50505050905090810190601f1680156104595780820380516001836020036101000a031916815260200191505b50838103825286818151815260200191508051906020019080838360005b83811015610492578082015181840152602081019050610477565b50505050905090810190601f1680156104bf5780820380516001836020036101000a031916815260200191505b509850505050505050505060405180910390f35b34156104de57600080fd5b6104e6610ab8565b005b34156104f357600080fd5b6104fb610c59565b6040518082815260200191505060405180910390f35b341561051c57600080fd5b610524610c5f565b005b341561053157600080fd5b61055d600480803573ffffffffffffffffffffffffffffffffffffffff16906020019091905050610ea6565b005b341561056a57600080fd5b610572610ffc565b005b341561057f57600080fd5b61058761115b565b6040518082815260200191505060405180910390f35b60028054600181600116156101000203166002900480601f0160208091040260200160405190810160405280929190818152602001828054600181600116156101000203166002900480156106335780601f1061060857610100808354040283529160200191610633565b820191906000526020600020905b81548152906001019060200180831161061657829003601f168201915b505050505081565b600460009054906101000a900460ff1681565b60058181548110151561065d57fe5b90600052602060002090016000915054906101000a900473ffffffffffffffffffffffffffffffffffffffff1681565b600860009054906101000a900473ffffffffffffffffffffffffffffffffffffffff1681565b60038054600181600116156101000203166002900480601f0160208091040260200160405190810160405280929190818152602001828054600181600116156101000203166002900480156107495780601f1061071e57610100808354040283529160200191610749565b820191906000526020600020905b81548152906001019060200180831161072c57829003601f168201915b505050505081565b6000809054906101000a900473ffffffffffffffffffffffffffffffffffffffff1673ffffffffffffffffffffffffffffffffffffffff163373ffffffffffffffffffffffffffffffffffffffff161415156107ac57600080fd5b600260048111156107b957fe5b600460009054906101000a900460ff1660048111156107d457fe5b1415156107e057600080fd5b8015610888576003600460006101000a81548160ff0219169083600481111561080557fe5b0217905550600860009054906101000a900473ffffffffffffffffffffffffffffffffffffffff1673ffffffffffffffffffffffffffffffffffffffff166108fc3073ffffffffffffffffffffffffffffffffffffffff16319081150290604051600060405180830381858888f19350505050151561088357600080fd5b6108d2565b6000600460006101000a81548160ff021916908360048111156108a757fe5b0217905550600860006101000a81549073ffffffffffffffffffffffffffffffffffffffff02191690555b50565b6000809054906101000a900473ffffffffffffffffffffffffffffffffffffffff1681565b600080610905611161565b61090d611161565b6000806000809054906101000a900473ffffffffffffffffffffffffffffffffffffffff1660015460026003600460009054906101000a900460ff16600860009054906101000a900473ffffffffffffffffffffffffffffffffffffffff16838054600181600116156101000203166002900480601f016020809104026020016040519081016040528092919081815260200182805460018160011615610100020316600290048015610a015780601f106109d657610100808354040283529160200191610a01565b820191906000526020600020905b8154815290600101906020018083116109e457829003601f168201915b50505050509350828054600181600116156101000203166002900480601f016020809104026020016040519081016040528092919081815260200182805460018160011615610100020316600290048015610a9d5780601f10610a7257610100808354040283529160200191610a9d565b820191906000526020600020905b815481529060010190602001808311610a8057829003601f168201915b50505050509250955095509550955095509550909192939495565b600960009054906101000a900473ffffffffffffffffffffffffffffffffffffffff1673ffffffffffffffffffffffffffffffffffffffff1663a230c524336000604051602001526040518263ffffffff167c0100000000000000000000000000000000000000000000000000000000028152600401808273ffffffffffffffffffffffffffffffffffffffff1673ffffffffffffffffffffffffffffffffffffffff168152602001915050602060405180830381600087803b1515610b7d57600080fd5b6102c65a03f11515610b8e57600080fd5b505050604051805190501515610ba357600080fd5b60016004811115610bb057fe5b600460009054906101000a900460ff166004811115610bcb57fe5b141515610bd757600080fd5b3373ffffffffffffffffffffffffffffffffffffffff16600860009054906101000a900473ffffffffffffffffffffffffffffffffffffffff1673ffffffffffffffffffffffffffffffffffffffff16141515610c3357600080fd5b6002600460006101000a81548160ff02191690836004811115610c5257fe5b0217905550565b60015481565b600960009054906101000a900473ffffffffffffffffffffffffffffffffffffffff1673ffffffffffffffffffffffffffffffffffffffff1663a230c524336000604051602001526040518263ffffffff167c0100000000000000000000000000000000000000000000000000000000028152600401808273ffffffffffffffffffffffffffffffffffffffff1673ffffffffffffffffffffffffffffffffffffffff168152602001915050602060405180830381600087803b1515610d2457600080fd5b6102c65a03f11515610d3557600080fd5b505050604051805190501515610d4a57600080fd5b60006004811115610d5757fe5b600460009054906101000a900460ff166004811115610d7257fe5b141515610d7e57600080fd5b600660003373ffffffffffffffffffffffffffffffffffffffff1673ffffffffffffffffffffffffffffffffffffffff16815260200190815260200160002060009054906101000a900460ff16151515610dd757600080fd5b60058054806001018281610deb9190611175565b9160005260206000209001600033909190916101000a81548173ffffffffffffffffffffffffffffffffffffffff021916908373ffffffffffffffffffffffffffffffffffffffff160217905550506007600081548092919060010191905055506001600660003373ffffffffffffffffffffffffffffffffffffffff1673ffffffffffffffffffffffffffffffffffffffff16815260200190815260200160002060006101000a81548160ff021916908315150217905550565b6000809054906101000a900473ffffffffffffffffffffffffffffffffffffffff1673ffffffffffffffffffffffffffffffffffffffff163373ffffffffffffffffffffffffffffffffffffffff16141515610f0157600080fd5b60006004811115610f0e57fe5b600460009054906101000a900460ff166004811115610f2957fe5b141515610f3557600080fd5b60011515600660008373ffffffffffffffffffffffffffffffffffffffff1673ffffffffffffffffffffffffffffffffffffffff16815260200190815260200160002060009054906101000a900460ff161515141515610f9457600080fd5b6001600460006101000a81548160ff02191690836004811115610fb357fe5b021790555080600860006101000a81548173ffffffffffffffffffffffffffffffffffffffff021916908373ffffffffffffffffffffffffffffffffffffffff16021790555050565b6000809054906101000a900473ffffffffffffffffffffffffffffffffffffffff1673ffffffffffffffffffffffffffffffffffffffff163373ffffffffffffffffffffffffffffffffffffffff1614151561105757600080fd5b6003600481111561106457fe5b600460009054906101000a900460ff16600481111561107f57fe5b141580156110b2575060048081111561109457fe5b600460009054906101000a900460ff1660048111156110af57fe5b14155b15156110bd57600080fd5b60048060006101000a81548160ff021916908360048111156110db57fe5b0217905550600960009054906101000a900473ffffffffffffffffffffffffffffffffffffffff1673ffffffffffffffffffffffffffffffffffffffff166108fc3073ffffffffffffffffffffffffffffffffffffffff16319081150290604051600060405180830381858888f19350505050151561115957600080fd5b565b60075481565b602060405190810160405280600081525090565b81548183558181151161119c5781836000526020600020918201910161119b91906111a1565b5b505050565b6111c391905b808211156111bf5760008160009055506001016111a7565b5090565b905600a165627a7a723058202fcd7c6da2d60a8051941ae45d70a35e9bf805ef0d64d8a630ec8685845eba150029",
  "source": "pragma solidity ^0.4.17;\nimport \"./Community.sol\";\n\ncontract Task {\n    \n    enum Status {\n        CREATED,\n        ASSIGNED,\n        COMPLETED,\n        VERIFIED,\n        CANCELED\n    }\n    \n    address public owner;\n    uint256 public createdAt;\n    string public name;\n    string public description;\n    \n    Status public status;\n    \n    address[] public volunteers;\n    mapping(address => bool) isVolunteer;\n    uint public volunteersCount;\n    address public assignedVolunteer;\n    \n    Community c;\n    \n    modifier onlyOwner {\n        require(msg.sender == owner);\n        _;\n    }\n    modifier onlyMember {\n        require(c.isMember(msg.sender));\n        _;\n    }\n    \n    function Task(Community _c, string _name, string _description) public {\n        c = _c;\n        owner = msg.sender;\n        createdAt = now;\n        name = _name;\n        description = _description;\n        \n        status = Status.CREATED;\n        \n        volunteersCount = 0;\n    }\n    \n    function() public payable {}\n    \n    function addVolunteer() public onlyMember{\n        require(status == Status.CREATED);\n\t\trequire(!isVolunteer[msg.sender]);\n        volunteers.push(msg.sender);\n        volunteersCount++;\n\t\tisVolunteer[msg.sender] = true;\n    }\n\n\tfunction taskInfo() public constant returns (address, uint256, string, string, Status, address) {\n\t\treturn (owner, createdAt, name, description, status, assignedVolunteer);\n\t}\n    \n    function cancelTask() public onlyOwner {\n        require(status != Status.VERIFIED && status != Status.CANCELED);\n        status = Status.CANCELED;\n        c.transfer(this.balance);\n    }\n    \n    function assignTask(address volunteer) public onlyOwner {\n        require(status == Status.CREATED);\n        require(isVolunteer[volunteer] == true);\n        status = Status.ASSIGNED;\n        assignedVolunteer = volunteer;\n    }\n    \n    function completedTask() public onlyMember {\n        require(status == Status.ASSIGNED);\n        require(assignedVolunteer == msg.sender);\n        status = Status.COMPLETED;\n    }\n    \n    function verifyTask(bool verified) public onlyOwner {\n        require(status == Status.COMPLETED);\n        if(verified) {\n            status = Status.VERIFIED;\n            assignedVolunteer.transfer(this.balance);\n        }else {\n            status = Status.CREATED;\n            delete assignedVolunteer;\n        }\n    }\n    \n}",
  "sourcePath": "/media/mdakram28/Data/projects/nodejs/agroshare/contracts/Task.sol",
  "compiler": {
    "name": "solc",
    "version": "0.4.18+commit.9cf6e910.Emscripten.clang"
  },
  "schemaVersion": "1.0.1",
  "updatedAt": "2018-02-18T06:32:46.956Z"
}